{
  "_format": "hh-sol-artifact-1",
  "contractName": "Supra",
  "sourceName": "contracts/Supra.sol",
  "abi": [
    {
      "inputs": [
        {
          "internalType": "address",
          "name": "oracle_",
          "type": "address"
        }
      ],
      "stateMutability": "nonpayable",
      "type": "constructor"
    },
    {
      "anonymous": false,
      "inputs": [
        {
          "indexed": false,
          "internalType": "uint256",
          "name": "pairId",
          "type": "uint256"
        },
        {
          "indexed": false,
          "internalType": "uint256",
          "name": "price",
          "type": "uint256"
        }
      ],
      "name": "PriceThresholdMet",
      "type": "event"
    },
    {
      "inputs": [
        {
          "internalType": "bytes",
          "name": "_bytesProof",
          "type": "bytes"
        }
      ],
      "name": "deliverPriceData",
      "outputs": [],
      "stateMutability": "nonpayable",
      "type": "function"
    },
    {
      "inputs": [
        {
          "internalType": "uint256",
          "name": "pairId",
          "type": "uint256"
        }
      ],
      "name": "getLatestPrice",
      "outputs": [
        {
          "internalType": "uint256",
          "name": "price",
          "type": "uint256"
        },
        {
          "internalType": "uint256",
          "name": "decimals",
          "type": "uint256"
        }
      ],
      "stateMutability": "view",
      "type": "function"
    },
    {
      "inputs": [
        {
          "internalType": "uint256",
          "name": "",
          "type": "uint256"
        }
      ],
      "name": "latestDecimals",
      "outputs": [
        {
          "internalType": "uint256",
          "name": "",
          "type": "uint256"
        }
      ],
      "stateMutability": "view",
      "type": "function"
    },
    {
      "inputs": [
        {
          "internalType": "uint256",
          "name": "",
          "type": "uint256"
        }
      ],
      "name": "latestPrices",
      "outputs": [
        {
          "internalType": "uint256",
          "name": "",
          "type": "uint256"
        }
      ],
      "stateMutability": "view",
      "type": "function"
    },
    {
      "inputs": [
        {
          "internalType": "address",
          "name": "oracle_",
          "type": "address"
        }
      ],
      "name": "updatePullAddress",
      "outputs": [],
      "stateMutability": "nonpayable",
      "type": "function"
    }
  ],
  "bytecode": "0x608060405234801561001057600080fd5b50604051610c2e380380610c2e833981810160405281019061003291906100db565b806000806101000a81548173ffffffffffffffffffffffffffffffffffffffff021916908373ffffffffffffffffffffffffffffffffffffffff16021790555050610108565b600080fd5b600073ffffffffffffffffffffffffffffffffffffffff82169050919050565b60006100a88261007d565b9050919050565b6100b88161009d565b81146100c357600080fd5b50565b6000815190506100d5816100af565b92915050565b6000602082840312156100f1576100f0610078565b5b60006100ff848285016100c6565b91505092915050565b610b17806101176000396000f3fe608060405234801561001057600080fd5b50600436106100575760003560e01c80632d4aa76f1461005c578063a73a99ac14610078578063b94fe917146100a8578063c9f8d053146100d9578063dd1fd856146100f5575b600080fd5b6100766004803603810190610071919061040d565b610125565b005b610092600480360381019061008d9190610490565b6102ed565b60405161009f91906104cc565b60405180910390f35b6100c260048036038101906100bd9190610490565b610305565b6040516100d09291906104e7565b60405180910390f35b6100f360048036038101906100ee919061056e565b610339565b005b61010f600480360381019061010a9190610490565b61037c565b60405161011c91906104cc565b60405180910390f35b60008060009054906101000a900473ffffffffffffffffffffffffffffffffffffffff1673ffffffffffffffffffffffffffffffffffffffff1663b3a076f484846040518363ffffffff1660e01b81526004016101839291906105f9565b6000604051808303816000875af11580156101a2573d6000803e3d6000fd5b505050506040513d6000823e3d601f19601f820116820180604052508101906101cb9190610832565b905060005b8160000151518110156102e7576000826000015182815181106101f6576101f561087b565b5b602002602001015190506000836020015183815181106102195761021861087b565b5b6020026020010151905060008460400151848151811061023c5761023b61087b565b5b6020026020010151905081600160008581526020019081526020016000208190555080600260008581526020019081526020016000208190555080600a6102839190610a0c565b6103e86102909190610a57565b8211156102d1577f52f568891f17318209fd465531500190924890a6a3e48086bd653020498d6b2383836040516102c89291906104e7565b60405180910390a15b50505080806102df90610a99565b9150506101d0565b50505050565b60016020528060005260406000206000915090505481565b6000806001600084815260200190815260200160002054915060026000848152602001908152602001600020549050915091565b806000806101000a81548173ffffffffffffffffffffffffffffffffffffffff021916908373ffffffffffffffffffffffffffffffffffffffff16021790555050565b60026020528060005260406000206000915090505481565b6000604051905090565b600080fd5b600080fd5b600080fd5b600080fd5b600080fd5b60008083601f8401126103cd576103cc6103a8565b5b8235905067ffffffffffffffff8111156103ea576103e96103ad565b5b602083019150836001820283011115610406576104056103b2565b5b9250929050565b600080602083850312156104245761042361039e565b5b600083013567ffffffffffffffff811115610442576104416103a3565b5b61044e858286016103b7565b92509250509250929050565b6000819050919050565b61046d8161045a565b811461047857600080fd5b50565b60008135905061048a81610464565b92915050565b6000602082840312156104a6576104a561039e565b5b60006104b48482850161047b565b91505092915050565b6104c68161045a565b82525050565b60006020820190506104e160008301846104bd565b92915050565b60006040820190506104fc60008301856104bd565b61050960208301846104bd565b9392505050565b600073ffffffffffffffffffffffffffffffffffffffff82169050919050565b600061053b82610510565b9050919050565b61054b81610530565b811461055657600080fd5b50565b60008135905061056881610542565b92915050565b6000602082840312156105845761058361039e565b5b600061059284828501610559565b91505092915050565b600082825260208201905092915050565b82818337600083830152505050565b6000601f19601f8301169050919050565b60006105d8838561059b565b93506105e58385846105ac565b6105ee836105bb565b840190509392505050565b600060208201905081810360008301526106148184866105cc565b90509392505050565b600080fd5b7f4e487b7100000000000000000000000000000000000000000000000000000000600052604160045260246000fd5b61065a826105bb565b810181811067ffffffffffffffff8211171561067957610678610622565b5b80604052505050565b600061068c610394565b90506106988282610651565b919050565b600080fd5b600067ffffffffffffffff8211156106bd576106bc610622565b5b602082029050602081019050919050565b6000815190506106dd81610464565b92915050565b60006106f66106f1846106a2565b610682565b90508083825260208201905060208402830185811115610719576107186103b2565b5b835b81811015610742578061072e88826106ce565b84526020840193505060208101905061071b565b5050509392505050565b600082601f830112610761576107606103a8565b5b81516107718482602086016106e3565b91505092915050565b6000606082840312156107905761078f61061d565b5b61079a6060610682565b9050600082015167ffffffffffffffff8111156107ba576107b961069d565b5b6107c68482850161074c565b600083015250602082015167ffffffffffffffff8111156107ea576107e961069d565b5b6107f68482850161074c565b602083015250604082015167ffffffffffffffff81111561081a5761081961069d565b5b6108268482850161074c565b60408301525092915050565b6000602082840312156108485761084761039e565b5b600082015167ffffffffffffffff811115610866576108656103a3565b5b6108728482850161077a565b91505092915050565b7f4e487b7100000000000000000000000000000000000000000000000000000000600052603260045260246000fd5b7f4e487b7100000000000000000000000000000000000000000000000000000000600052601160045260246000fd5b60008160011c9050919050565b6000808291508390505b60018511156109305780860481111561090c5761090b6108aa565b5b600185161561091b5780820291505b8081029050610929856108d9565b94506108f0565b94509492505050565b6000826109495760019050610a05565b816109575760009050610a05565b816001811461096d5760028114610977576109a6565b6001915050610a05565b60ff841115610989576109886108aa565b5b8360020a9150848211156109a05761099f6108aa565b5b50610a05565b5060208310610133831016604e8410600b84101617156109db5782820a9050838111156109d6576109d56108aa565b5b610a05565b6109e884848460016108e6565b925090508184048111156109ff576109fe6108aa565b5b81810290505b9392505050565b6000610a178261045a565b9150610a228361045a565b9250610a4f7fffffffffffffffffffffffffffffffffffffffffffffffffffffffffffffffff8484610939565b905092915050565b6000610a628261045a565b9150610a6d8361045a565b9250828202610a7b8161045a565b91508282048414831517610a9257610a916108aa565b5b5092915050565b6000610aa48261045a565b91507fffffffffffffffffffffffffffffffffffffffffffffffffffffffffffffffff8203610ad657610ad56108aa565b5b60018201905091905056fea2646970667358221220b63f74677204920042e9f3aefb489a09caf70d07a36a6d75517e5850c687ff4664736f6c63430008130033",
  "linkReferences": {},
  "deployedLinkReferences": {}
}